{
  "_format": "hh-sol-artifact-1",
  "contractName": "Chime",
  "sourceName": "contracts/Chime.sol",
  "abi": [
    {
      "inputs": [],
      "stateMutability": "nonpayable",
      "type": "constructor"
    },
    {
      "inputs": [
        {
          "internalType": "address",
          "name": "_addr",
          "type": "address"
        },
        {
          "internalType": "string",
          "name": "_name",
          "type": "string"
        },
        {
          "internalType": "enum Chime.relationship_type",
          "name": "_relationship",
          "type": "uint8"
        }
      ],
      "name": "addToList",
      "outputs": [],
      "stateMutability": "nonpayable",
      "type": "function"
    },
    {
      "inputs": [
        {
          "internalType": "address",
          "name": "_addr",
          "type": "address"
        }
      ],
      "name": "getName",
      "outputs": [
        {
          "internalType": "string",
          "name": "_name",
          "type": "string"
        }
      ],
      "stateMutability": "view",
      "type": "function"
    },
    {
      "inputs": [
        {
          "internalType": "address",
          "name": "_addr",
          "type": "address"
        }
      ],
      "name": "getRelationship",
      "outputs": [
        {
          "internalType": "enum Chime.relationship_type",
          "name": "_relationship",
          "type": "uint8"
        }
      ],
      "stateMutability": "view",
      "type": "function"
    },
    {
      "inputs": [
        {
          "internalType": "address",
          "name": "",
          "type": "address"
        }
      ],
      "name": "list",
      "outputs": [
        {
          "internalType": "string",
          "name": "name",
          "type": "string"
        },
        {
          "internalType": "enum Chime.relationship_type",
          "name": "relationship",
          "type": "uint8"
        }
      ],
      "stateMutability": "view",
      "type": "function"
    },
    {
      "inputs": [
        {
          "internalType": "address",
          "name": "_to",
          "type": "address"
        },
        {
          "internalType": "string",
          "name": "_message",
          "type": "string"
        }
      ],
      "name": "sendMessage",
      "outputs": [],
      "stateMutability": "nonpayable",
      "type": "function"
    }
  ],
  "bytecode": "0x608060405234801561001057600080fd5b5061093b806100206000396000f3fe608060405234801561001057600080fd5b50600436106100575760003560e01c80635fd4b08a1461005c578063643216f51461008c578063bb032a66146100a8578063de6f24bb146100d9578063e7b2d167146100f5575b600080fd5b6100766004803603810190610071919061054b565b610125565b6040516100839190610692565b60405180910390f35b6100a660048036038101906100a191906105c8565b6101f9565b005b6100c260048036038101906100bd919061054b565b610300565b6040516100d09291906106b4565b60405180910390f35b6100f360048036038101906100ee9190610574565b6103b9565b005b61010f600480360381019061010a919061054b565b6103bd565b60405161011c9190610677565b60405180910390f35b6060600460008373ffffffffffffffffffffffffffffffffffffffff1673ffffffffffffffffffffffffffffffffffffffff1681526020019081526020016000206000018054610174906107fa565b80601f01602080910402602001604051908101604052809291908181526020018280546101a0906107fa565b80156101ed5780601f106101c2576101008083540402835291602001916101ed565b820191906000526020600020905b8154815290600101906020018083116101d057829003601f168201915b50505050509050919050565b6040518060400160405280838152602001826002811115610243577f4e487b7100000000000000000000000000000000000000000000000000000000600052602160045260246000fd5b815250600460008573ffffffffffffffffffffffffffffffffffffffff1673ffffffffffffffffffffffffffffffffffffffff16815260200190815260200160002060008201518160000190805190602001906102a1929190610416565b5060208201518160010160006101000a81548160ff021916908360028111156102f3577f4e487b7100000000000000000000000000000000000000000000000000000000600052602160045260246000fd5b0217905550905050505050565b6004602052806000526040600020600091509050806000018054610323906107fa565b80601f016020809104026020016040519081016040528092919081815260200182805461034f906107fa565b801561039c5780601f106103715761010080835404028352916020019161039c565b820191906000526020600020905b81548152906001019060200180831161037f57829003601f168201915b5050505050908060010160009054906101000a900460ff16905082565b5050565b6000600460008373ffffffffffffffffffffffffffffffffffffffff1673ffffffffffffffffffffffffffffffffffffffff16815260200190815260200160002060010160009054906101000a900460ff169050919050565b828054610422906107fa565b90600052602060002090601f016020900481019282610444576000855561048b565b82601f1061045d57805160ff191683800117855561048b565b8280016001018555821561048b579182015b8281111561048a57825182559160200191906001019061046f565b5b509050610498919061049c565b5090565b5b808211156104b557600081600090555060010161049d565b5090565b60006104cc6104c784610715565b6106e4565b9050828152602081018484840111156104e457600080fd5b6104ef8482856107b8565b509392505050565b600081359050610506816108de565b92915050565b60008135905061051b816108f5565b92915050565b600082601f83011261053257600080fd5b81356105428482602086016104b9565b91505092915050565b60006020828403121561055d57600080fd5b600061056b848285016104f7565b91505092915050565b6000806040838503121561058757600080fd5b6000610595858286016104f7565b925050602083013567ffffffffffffffff8111156105b257600080fd5b6105be85828601610521565b9150509250929050565b6000806000606084860312156105dd57600080fd5b60006105eb868287016104f7565b935050602084013567ffffffffffffffff81111561060857600080fd5b61061486828701610521565b92505060406106258682870161050c565b9150509250925092565b610638816107a6565b82525050565b600061064982610745565b6106538185610750565b93506106638185602086016107c7565b61066c816108b9565b840191505092915050565b600060208201905061068c600083018461062f565b92915050565b600060208201905081810360008301526106ac818461063e565b905092915050565b600060408201905081810360008301526106ce818561063e565b90506106dd602083018461062f565b9392505050565b6000604051905081810181811067ffffffffffffffff8211171561070b5761070a61088a565b5b8060405250919050565b600067ffffffffffffffff8211156107305761072f61088a565b5b601f19601f8301169050602081019050919050565b600081519050919050565b600082825260208201905092915050565b600061076c82610786565b9050919050565b6000819050610781826108ca565b919050565b600073ffffffffffffffffffffffffffffffffffffffff82169050919050565b60006107b182610773565b9050919050565b82818337600083830152505050565b60005b838110156107e55780820151818401526020810190506107ca565b838111156107f4576000848401525b50505050565b6000600282049050600182168061081257607f821691505b602082108114156108265761082561085b565b5b50919050565b7f4e487b7100000000000000000000000000000000000000000000000000000000600052602160045260246000fd5b7f4e487b7100000000000000000000000000000000000000000000000000000000600052602260045260246000fd5b7f4e487b7100000000000000000000000000000000000000000000000000000000600052604160045260246000fd5b6000601f19601f8301169050919050565b600381106108db576108da61082c565b5b50565b6108e781610761565b81146108f257600080fd5b50565b6003811061090257600080fd5b5056fea264697066735822122003c220937d0842284b4d49fc274f65be5d58ccda0a772d8e32e338a74f562eee64736f6c63430008000033",
  "linkReferences": {},
  "deployedLinkReferences": {}
}