{
  "_format": "hh-sol-artifact-1",
  "contractName": "Chime",
  "sourceName": "contracts/Chime.sol",
  "abi": [
    {
      "inputs": [
        {
          "internalType": "string",
          "name": "_message",
          "type": "string"
        }
      ],
      "name": "sendMessage",
      "outputs": [],
      "stateMutability": "nonpayable",
      "type": "function"
    },
    {
      "inputs": [
        {
          "internalType": "address",
          "name": "_owner",
          "type": "address"
        }
      ],
      "name": "setOwner",
      "outputs": [],
      "stateMutability": "nonpayable",
      "type": "function"
    }
  ],
  "bytecode": "0x6080604052336000806101000a81548173ffffffffffffffffffffffffffffffffffffffff021916908373ffffffffffffffffffffffffffffffffffffffff16021790555034801561005057600080fd5b506102be806100606000396000f3fe608060405234801561001057600080fd5b50600436106100365760003560e01c806313af40351461003b578063469c811014610057575b600080fd5b61005560048036038101906100509190610136565b610073565b005b610071600480360381019061006c919061015f565b6100b6565b005b806000806101000a81548173ffffffffffffffffffffffffffffffffffffffff021916908373ffffffffffffffffffffffffffffffffffffffff16021790555050565b50565b60006100cc6100c7846101d1565b6101a0565b9050828152602081018484840111156100e457600080fd5b6100ef848285610233565b509392505050565b60008135905061010681610271565b92915050565b600082601f83011261011d57600080fd5b813561012d8482602086016100b9565b91505092915050565b60006020828403121561014857600080fd5b6000610156848285016100f7565b91505092915050565b60006020828403121561017157600080fd5b600082013567ffffffffffffffff81111561018b57600080fd5b6101978482850161010c565b91505092915050565b6000604051905081810181811067ffffffffffffffff821117156101c7576101c6610242565b5b8060405250919050565b600067ffffffffffffffff8211156101ec576101eb610242565b5b601f19601f8301169050602081019050919050565b600061020c82610213565b9050919050565b600073ffffffffffffffffffffffffffffffffffffffff82169050919050565b82818337600083830152505050565b7f4e487b7100000000000000000000000000000000000000000000000000000000600052604160045260246000fd5b61027a81610201565b811461028557600080fd5b5056fea26469706673582212208b2d2960461a359bf0bafa57b9839640bff4da7abf895b0109e159f087215a6164736f6c63430008000033",
  "linkReferences": {},
  "deployedLinkReferences": {}
}