{
  "_format": "hh-sol-artifact-1",
  "contractName": "Chime",
  "sourceName": "contracts/Chime.sol",
  "abi": [
    {
      "inputs": [],
      "stateMutability": "nonpayable",
      "type": "constructor"
    },
    {
      "inputs": [
        {
          "internalType": "address",
          "name": "_addr",
          "type": "address"
        },
        {
          "internalType": "string",
          "name": "_name",
          "type": "string"
        },
        {
          "internalType": "enum Chime.relationship_type",
          "name": "_relationship",
          "type": "uint8"
        }
      ],
      "name": "addToList",
      "outputs": [],
      "stateMutability": "nonpayable",
      "type": "function"
    },
    {
      "inputs": [
        {
          "internalType": "address",
          "name": "_addr",
          "type": "address"
        }
      ],
      "name": "getName",
      "outputs": [
        {
          "internalType": "string",
          "name": "_name",
          "type": "string"
        }
      ],
      "stateMutability": "view",
      "type": "function"
    },
    {
      "inputs": [
        {
          "internalType": "address",
          "name": "_addr",
          "type": "address"
        }
      ],
      "name": "getRelationship",
      "outputs": [
        {
          "internalType": "enum Chime.relationship_type",
          "name": "_relationship",
          "type": "uint8"
        }
      ],
      "stateMutability": "view",
      "type": "function"
    },
    {
      "inputs": [
        {
          "internalType": "address",
          "name": "",
          "type": "address"
        }
      ],
      "name": "list",
      "outputs": [
        {
          "internalType": "string",
          "name": "name",
          "type": "string"
        },
        {
          "internalType": "enum Chime.relationship_type",
          "name": "relationship",
          "type": "uint8"
        }
      ],
      "stateMutability": "view",
      "type": "function"
    },
    {
      "inputs": [
        {
          "internalType": "address",
          "name": "_addr",
          "type": "address"
        }
      ],
      "name": "removeFromList",
      "outputs": [],
      "stateMutability": "nonpayable",
      "type": "function"
    },
    {
      "inputs": [
        {
          "internalType": "address",
          "name": "_to",
          "type": "address"
        },
        {
          "internalType": "string",
          "name": "_message",
          "type": "string"
        }
      ],
      "name": "sendMessage",
      "outputs": [],
      "stateMutability": "nonpayable",
      "type": "function"
    }
  ],
  "bytecode": "0x608060405234801561001057600080fd5b50610a0b806100206000396000f3fe608060405234801561001057600080fd5b50600436106100625760003560e01c8063257f9abf146100675780635fd4b08a14610083578063643216f5146100b3578063bb032a66146100cf578063de6f24bb14610100578063e7b2d1671461011c575b600080fd5b610081600480360381019061007c919061061b565b61014c565b005b61009d6004803603810190610098919061061b565b6101b5565b6040516100aa9190610762565b60405180910390f35b6100cd60048036038101906100c89190610698565b610289565b005b6100e960048036038101906100e4919061061b565b610390565b6040516100f7929190610784565b60405180910390f35b61011a60048036038101906101159190610644565b610449565b005b6101366004803603810190610131919061061b565b61044d565b6040516101439190610747565b60405180910390f35b600460008273ffffffffffffffffffffffffffffffffffffffff1673ffffffffffffffffffffffffffffffffffffffff1681526020019081526020016000206000808201600061019c91906104a6565b6001820160006101000a81549060ff0219169055505050565b6060600460008373ffffffffffffffffffffffffffffffffffffffff1673ffffffffffffffffffffffffffffffffffffffff1681526020019081526020016000206000018054610204906108ca565b80601f0160208091040260200160405190810160405280929190818152602001828054610230906108ca565b801561027d5780601f106102525761010080835404028352916020019161027d565b820191906000526020600020905b81548152906001019060200180831161026057829003601f168201915b50505050509050919050565b60405180604001604052808381526020018260028111156102d3577f4e487b7100000000000000000000000000000000000000000000000000000000600052602160045260246000fd5b815250600460008573ffffffffffffffffffffffffffffffffffffffff1673ffffffffffffffffffffffffffffffffffffffff16815260200190815260200160002060008201518160000190805190602001906103319291906104e6565b5060208201518160010160006101000a81548160ff02191690836002811115610383577f4e487b7100000000000000000000000000000000000000000000000000000000600052602160045260246000fd5b0217905550905050505050565b60046020528060005260406000206000915090508060000180546103b3906108ca565b80601f01602080910402602001604051908101604052809291908181526020018280546103df906108ca565b801561042c5780601f106104015761010080835404028352916020019161042c565b820191906000526020600020905b81548152906001019060200180831161040f57829003601f168201915b5050505050908060010160009054906101000a900460ff16905082565b5050565b6000600460008373ffffffffffffffffffffffffffffffffffffffff1673ffffffffffffffffffffffffffffffffffffffff16815260200190815260200160002060010160009054906101000a900460ff169050919050565b5080546104b2906108ca565b6000825580601f106104c457506104e3565b601f0160209004906000526020600020908101906104e2919061056c565b5b50565b8280546104f2906108ca565b90600052602060002090601f016020900481019282610514576000855561055b565b82601f1061052d57805160ff191683800117855561055b565b8280016001018555821561055b579182015b8281111561055a57825182559160200191906001019061053f565b5b509050610568919061056c565b5090565b5b8082111561058557600081600090555060010161056d565b5090565b600061059c610597846107e5565b6107b4565b9050828152602081018484840111156105b457600080fd5b6105bf848285610888565b509392505050565b6000813590506105d6816109ae565b92915050565b6000813590506105eb816109c5565b92915050565b600082601f83011261060257600080fd5b8135610612848260208601610589565b91505092915050565b60006020828403121561062d57600080fd5b600061063b848285016105c7565b91505092915050565b6000806040838503121561065757600080fd5b6000610665858286016105c7565b925050602083013567ffffffffffffffff81111561068257600080fd5b61068e858286016105f1565b9150509250929050565b6000806000606084860312156106ad57600080fd5b60006106bb868287016105c7565b935050602084013567ffffffffffffffff8111156106d857600080fd5b6106e4868287016105f1565b92505060406106f5868287016105dc565b9150509250925092565b61070881610876565b82525050565b600061071982610815565b6107238185610820565b9350610733818560208601610897565b61073c81610989565b840191505092915050565b600060208201905061075c60008301846106ff565b92915050565b6000602082019050818103600083015261077c818461070e565b905092915050565b6000604082019050818103600083015261079e818561070e565b90506107ad60208301846106ff565b9392505050565b6000604051905081810181811067ffffffffffffffff821117156107db576107da61095a565b5b8060405250919050565b600067ffffffffffffffff821115610800576107ff61095a565b5b601f19601f8301169050602081019050919050565b600081519050919050565b600082825260208201905092915050565b600061083c82610856565b9050919050565b60008190506108518261099a565b919050565b600073ffffffffffffffffffffffffffffffffffffffff82169050919050565b600061088182610843565b9050919050565b82818337600083830152505050565b60005b838110156108b557808201518184015260208101905061089a565b838111156108c4576000848401525b50505050565b600060028204905060018216806108e257607f821691505b602082108114156108f6576108f561092b565b5b50919050565b7f4e487b7100000000000000000000000000000000000000000000000000000000600052602160045260246000fd5b7f4e487b7100000000000000000000000000000000000000000000000000000000600052602260045260246000fd5b7f4e487b7100000000000000000000000000000000000000000000000000000000600052604160045260246000fd5b6000601f19601f8301169050919050565b600381106109ab576109aa6108fc565b5b50565b6109b781610831565b81146109c257600080fd5b50565b600381106109d257600080fd5b5056fea26469706673582212200b5e893c75206e57aabb4972f03ed0ceeef63f0dab87c0da6fd464dff4fc586664736f6c63430008000033",
  "linkReferences": {},
  "deployedLinkReferences": {}
}