{
  "_format": "hh-sol-artifact-1",
  "contractName": "ChimeToken",
  "sourceName": "contracts/ChimeToken.sol",
  "abi": [
    {
      "inputs": [
        {
          "internalType": "string",
          "name": "name",
          "type": "string"
        },
        {
          "internalType": "string",
          "name": "symbol",
          "type": "string"
        }
      ],
      "stateMutability": "nonpayable",
      "type": "constructor"
    },
    {
      "anonymous": false,
      "inputs": [
        {
          "indexed": true,
          "internalType": "address",
          "name": "owner",
          "type": "address"
        },
        {
          "indexed": true,
          "internalType": "address",
          "name": "spender",
          "type": "address"
        },
        {
          "indexed": false,
          "internalType": "uint256",
          "name": "value",
          "type": "uint256"
        }
      ],
      "name": "Approval",
      "type": "event"
    },
    {
      "anonymous": false,
      "inputs": [
        {
          "indexed": true,
          "internalType": "address",
          "name": "from",
          "type": "address"
        },
        {
          "indexed": true,
          "internalType": "address",
          "name": "to",
          "type": "address"
        },
        {
          "indexed": false,
          "internalType": "uint256",
          "name": "value",
          "type": "uint256"
        }
      ],
      "name": "Transfer",
      "type": "event"
    },
    {
      "inputs": [],
      "name": "LinkToken",
      "outputs": [
        {
          "internalType": "address",
          "name": "",
          "type": "address"
        }
      ],
      "stateMutability": "view",
      "type": "function"
    },
    {
      "inputs": [],
      "name": "VRFCoordinator",
      "outputs": [
        {
          "internalType": "address",
          "name": "",
          "type": "address"
        }
      ],
      "stateMutability": "view",
      "type": "function"
    },
    {
      "inputs": [
        {
          "internalType": "address",
          "name": "owner",
          "type": "address"
        },
        {
          "internalType": "address",
          "name": "spender",
          "type": "address"
        }
      ],
      "name": "allowance",
      "outputs": [
        {
          "internalType": "uint256",
          "name": "",
          "type": "uint256"
        }
      ],
      "stateMutability": "view",
      "type": "function"
    },
    {
      "inputs": [
        {
          "internalType": "address",
          "name": "spender",
          "type": "address"
        },
        {
          "internalType": "uint256",
          "name": "amount",
          "type": "uint256"
        }
      ],
      "name": "approve",
      "outputs": [
        {
          "internalType": "bool",
          "name": "",
          "type": "bool"
        }
      ],
      "stateMutability": "nonpayable",
      "type": "function"
    },
    {
      "inputs": [
        {
          "internalType": "address",
          "name": "account",
          "type": "address"
        }
      ],
      "name": "balanceOf",
      "outputs": [
        {
          "internalType": "uint256",
          "name": "",
          "type": "uint256"
        }
      ],
      "stateMutability": "view",
      "type": "function"
    },
    {
      "inputs": [],
      "name": "decimals",
      "outputs": [
        {
          "internalType": "uint8",
          "name": "",
          "type": "uint8"
        }
      ],
      "stateMutability": "view",
      "type": "function"
    },
    {
      "inputs": [
        {
          "internalType": "address",
          "name": "spender",
          "type": "address"
        },
        {
          "internalType": "uint256",
          "name": "subtractedValue",
          "type": "uint256"
        }
      ],
      "name": "decreaseAllowance",
      "outputs": [
        {
          "internalType": "bool",
          "name": "",
          "type": "bool"
        }
      ],
      "stateMutability": "nonpayable",
      "type": "function"
    },
    {
      "inputs": [],
      "name": "getRandomNumber",
      "outputs": [
        {
          "internalType": "bytes32",
          "name": "requestId",
          "type": "bytes32"
        }
      ],
      "stateMutability": "nonpayable",
      "type": "function"
    },
    {
      "inputs": [
        {
          "internalType": "address",
          "name": "spender",
          "type": "address"
        },
        {
          "internalType": "uint256",
          "name": "addedValue",
          "type": "uint256"
        }
      ],
      "name": "increaseAllowance",
      "outputs": [
        {
          "internalType": "bool",
          "name": "",
          "type": "bool"
        }
      ],
      "stateMutability": "nonpayable",
      "type": "function"
    },
    {
      "inputs": [],
      "name": "maintainer",
      "outputs": [
        {
          "internalType": "address",
          "name": "",
          "type": "address"
        }
      ],
      "stateMutability": "view",
      "type": "function"
    },
    {
      "inputs": [],
      "name": "name",
      "outputs": [
        {
          "internalType": "string",
          "name": "",
          "type": "string"
        }
      ],
      "stateMutability": "view",
      "type": "function"
    },
    {
      "inputs": [],
      "name": "randomResult",
      "outputs": [
        {
          "internalType": "uint256",
          "name": "",
          "type": "uint256"
        }
      ],
      "stateMutability": "view",
      "type": "function"
    },
    {
      "inputs": [
        {
          "internalType": "uint256",
          "name": "msgValue",
          "type": "uint256"
        }
      ],
      "name": "randomWinner",
      "outputs": [],
      "stateMutability": "nonpayable",
      "type": "function"
    },
    {
      "inputs": [
        {
          "internalType": "bytes32",
          "name": "requestId",
          "type": "bytes32"
        },
        {
          "internalType": "uint256",
          "name": "randomness",
          "type": "uint256"
        }
      ],
      "name": "rawFulfillRandomness",
      "outputs": [],
      "stateMutability": "nonpayable",
      "type": "function"
    },
    {
      "inputs": [],
      "name": "symbol",
      "outputs": [
        {
          "internalType": "string",
          "name": "",
          "type": "string"
        }
      ],
      "stateMutability": "view",
      "type": "function"
    },
    {
      "inputs": [],
      "name": "totalSupply",
      "outputs": [
        {
          "internalType": "uint256",
          "name": "",
          "type": "uint256"
        }
      ],
      "stateMutability": "view",
      "type": "function"
    },
    {
      "inputs": [
        {
          "internalType": "address",
          "name": "recipient",
          "type": "address"
        },
        {
          "internalType": "uint256",
          "name": "amount",
          "type": "uint256"
        }
      ],
      "name": "transfer",
      "outputs": [
        {
          "internalType": "bool",
          "name": "",
          "type": "bool"
        }
      ],
      "stateMutability": "nonpayable",
      "type": "function"
    },
    {
      "inputs": [
        {
          "internalType": "address",
          "name": "sender",
          "type": "address"
        },
        {
          "internalType": "address",
          "name": "recipient",
          "type": "address"
        },
        {
          "internalType": "uint256",
          "name": "amount",
          "type": "uint256"
        }
      ],
      "name": "transferFrom",
      "outputs": [
        {
          "internalType": "bool",
          "name": "",
          "type": "bool"
        }
      ],
      "stateMutability": "nonpayable",
      "type": "function"
    },
    {
      "inputs": [],
      "name": "transferValue",
      "outputs": [
        {
          "internalType": "uint256",
          "name": "",
          "type": "uint256"
        }
      ],
      "stateMutability": "view",
      "type": "function"
    },
    {
      "inputs": [],
      "name": "winner",
      "outputs": [
        {
          "internalType": "bool",
          "name": "",
          "type": "bool"
        }
      ],
      "stateMutability": "view",
      "type": "function"
    }
  ],
  "bytecode": "0x60c060405273b3dccb4cf7a26f6cf6b120cf5a73875b7bbc655b600660006101000a81548173ffffffffffffffffffffffffffffffffffffffff021916908373ffffffffffffffffffffffffffffffffffffffff1602179055507301be23585060835e02b77ef475b0cc51aa1e0709600760006101000a81548173ffffffffffffffffffffffffffffffffffffffff021916908373ffffffffffffffffffffffffffffffffffffffff1602179055507f2ed0feb3e7fd2022120aa84fab1945545a9f2ffc9076fd6156fa96eaff4c131160001b60085567016345785d8a0000600955348015620000ee57600080fd5b5060405162002d7238038062002d72833981810160405281019062000114919062000566565b600660009054906101000a900473ffffffffffffffffffffffffffffffffffffffff16600760009054906101000a900473ffffffffffffffffffffffffffffffffffffffff16838381600390805190602001906200017492919062000438565b5080600490805190602001906200018d92919062000438565b5050508173ffffffffffffffffffffffffffffffffffffffff1660a08173ffffffffffffffffffffffffffffffffffffffff1660601b815250508073ffffffffffffffffffffffffffffffffffffffff1660808173ffffffffffffffffffffffffffffffffffffffff1660601b81525050505033600b60006101000a81548173ffffffffffffffffffffffffffffffffffffffff021916908373ffffffffffffffffffffffffffffffffffffffff16021790555062000251620002ac60201b60201c565b600a6200025f91906200078a565b620f42406200026f9190620008c7565b600c819055506200028930600c54620002b560201b60201c565b6000600e60006101000a81548160ff021916908315150217905550505062000ac9565b60006012905090565b600073ffffffffffffffffffffffffffffffffffffffff168273ffffffffffffffffffffffffffffffffffffffff16141562000328576040517f08c379a00000000000000000000000000000000000000000000000000000000081526004016200031f9062000623565b60405180910390fd5b6200033c600083836200042e60201b60201c565b8060026000828254620003509190620006d2565b92505081905550806000808473ffffffffffffffffffffffffffffffffffffffff1673ffffffffffffffffffffffffffffffffffffffff1681526020019081526020016000206000828254620003a79190620006d2565b925050819055508173ffffffffffffffffffffffffffffffffffffffff16600073ffffffffffffffffffffffffffffffffffffffff167fddf252ad1be2c89b69c2b068fc378daa952ba7f163c4a11628f55a4df523b3ef836040516200040e919062000645565b60405180910390a36200042a600083836200043360201b60201c565b5050565b505050565b505050565b828054620004469062000975565b90600052602060002090601f0160209004810192826200046a5760008555620004b6565b82601f106200048557805160ff1916838001178555620004b6565b82800160010185558215620004b6579182015b82811115620004b557825182559160200191906001019062000498565b5b509050620004c59190620004c9565b5090565b5b80821115620004e4576000816000905550600101620004ca565b5090565b6000620004ff620004f9846200068b565b62000662565b9050828152602081018484840111156200051e576200051d62000a73565b5b6200052b8482856200093f565b509392505050565b600082601f8301126200054b576200054a62000a6e565b5b81516200055d848260208601620004e8565b91505092915050565b6000806040838503121562000580576200057f62000a7d565b5b600083015167ffffffffffffffff811115620005a157620005a062000a78565b5b620005af8582860162000533565b925050602083015167ffffffffffffffff811115620005d357620005d262000a78565b5b620005e18582860162000533565b9150509250929050565b6000620005fa601f83620006c1565b9150620006078262000aa0565b602082019050919050565b6200061d8162000928565b82525050565b600060208201905081810360008301526200063e81620005eb565b9050919050565b60006020820190506200065c600083018462000612565b92915050565b60006200066e62000681565b90506200067c8282620009ab565b919050565b6000604051905090565b600067ffffffffffffffff821115620006a957620006a862000a3f565b5b620006b48262000a82565b9050602081019050919050565b600082825260208201905092915050565b6000620006df8262000928565b9150620006ec8362000928565b9250827fffffffffffffffffffffffffffffffffffffffffffffffffffffffffffffffff03821115620007245762000723620009e1565b5b828201905092915050565b6000808291508390505b60018511156200078157808604811115620007595762000758620009e1565b5b6001851615620007695780820291505b8081029050620007798562000a93565b945062000739565b94509492505050565b6000620007978262000928565b9150620007a48362000932565b9250620007d37fffffffffffffffffffffffffffffffffffffffffffffffffffffffffffffffff8484620007db565b905092915050565b600082620007ed5760019050620008c0565b81620007fd5760009050620008c0565b8160018114620008165760028114620008215762000857565b6001915050620008c0565b60ff841115620008365762000835620009e1565b5b8360020a91508482111562000850576200084f620009e1565b5b50620008c0565b5060208310610133831016604e8410600b8410161715620008915782820a9050838111156200088b576200088a620009e1565b5b620008c0565b620008a084848460016200072f565b92509050818404811115620008ba57620008b9620009e1565b5b81810290505b9392505050565b6000620008d48262000928565b9150620008e18362000928565b9250817fffffffffffffffffffffffffffffffffffffffffffffffffffffffffffffffff04831182151516156200091d576200091c620009e1565b5b828202905092915050565b6000819050919050565b600060ff82169050919050565b60005b838110156200095f57808201518184015260208101905062000942565b838111156200096f576000848401525b50505050565b600060028204905060018216806200098e57607f821691505b60208210811415620009a557620009a462000a10565b5b50919050565b620009b68262000a82565b810181811067ffffffffffffffff82111715620009d857620009d762000a3f565b5b80604052505050565b7f4e487b7100000000000000000000000000000000000000000000000000000000600052601160045260246000fd5b7f4e487b7100000000000000000000000000000000000000000000000000000000600052602260045260246000fd5b7f4e487b7100000000000000000000000000000000000000000000000000000000600052604160045260246000fd5b600080fd5b600080fd5b600080fd5b600080fd5b6000601f19601f8301169050919050565b60008160011c9050919050565b7f45524332303a206d696e7420746f20746865207a65726f206164647265737300600082015250565b60805160601c60a05160601c61226f62000b0360003960008181610853015261112e015260008181610ab501526110f2015261226f6000f3fe608060405234801561001057600080fd5b506004361061012c5760003560e01c80634f8e2fdf116100ad578063a457c2d711610071578063a457c2d714610337578063a9059cbb14610367578063dbdff2c114610397578063dd62ed3e146103b5578063dfbf53ae146103e55761012c565b80634f8e2fdf1461029157806370a08231146102af57806394985ddd146102df57806395d89b41146102fb5780639850d32b146103195761012c565b80632d9ed8d5116100f45780632d9ed8d5146101e9578063313ce5671461020757806333b6086314610225578063395093511461024357806342619f66146102735761012c565b806306fdde0314610131578063095ea7b31461014f57806318160ddd1461017f5780631ba07f921461019d57806323b872dd146101b9575b600080fd5b610139610403565b60405161014691906118b1565b60405180910390f35b610169600480360381019061016491906113f2565b610495565b604051610176919061180d565b60405180910390f35b6101876104b3565b6040516101949190611a53565b60405180910390f35b6101b760048036038101906101b2919061149f565b6104bd565b005b6101d360048036038101906101ce919061139f565b610604565b6040516101e0919061180d565b60405180910390f35b6101f16106fc565b6040516101fe9190611a53565b60405180910390f35b61020f610702565b60405161021c9190611a6e565b60405180910390f35b61022d61070b565b60405161023a91906117b4565b60405180910390f35b61025d600480360381019061025891906113f2565b610731565b60405161026a919061180d565b60405180910390f35b61027b6107dd565b6040516102889190611a53565b60405180910390f35b6102996107e3565b6040516102a691906117b4565b60405180910390f35b6102c960048036038101906102c49190611332565b610809565b6040516102d69190611a53565b60405180910390f35b6102f960048036038101906102f4919061145f565b610851565b005b6103036108ed565b60405161031091906118b1565b60405180910390f35b61032161097f565b60405161032e91906117b4565b60405180910390f35b610351600480360381019061034c91906113f2565b6109a5565b60405161035e919061180d565b60405180910390f35b610381600480360381019061037c91906113f2565b610a90565b60405161038e919061180d565b60405180910390f35b61039f610aae565b6040516103ac9190611828565b60405180910390f35b6103cf60048036038101906103ca919061135f565b610bcb565b6040516103dc9190611a53565b60405180910390f35b6103ed610c52565b6040516103fa919061180d565b60405180910390f35b60606003805461041290611da5565b80601f016020809104026020016040519081016040528092919081815260200182805461043e90611da5565b801561048b5780601f106104605761010080835404028352916020019161048b565b820191906000526020600020905b81548152906001019060200180831161046e57829003601f168201915b5050505050905090565b60006104a96104a2610c65565b8484610c6d565b6001905092915050565b6000600254905090565b7f0235fadd81c2822bb3f07877973d50f28bf22a31be8ee8000000000000000000600a546104eb9190611b17565b600d819055506000600a541415610537576040517f08c379a000000000000000000000000000000000000000000000000000000000815260040161052e906119d3565b60405180910390fd5b600d54811161057b576040517f08c379a000000000000000000000000000000000000000000000000000000000815260040161057290611933565b60405180910390fd5b60001515600e60009054906101000a900460ff161515146105d1576040517f08c379a00000000000000000000000000000000000000000000000000000000081526004016105c890611913565b60405180910390fd5b60006105db610702565b600a6105e79190611b9b565b600d546105f49190611cb9565b90506106003382610e38565b5050565b6000610611848484610e62565b6000600160008673ffffffffffffffffffffffffffffffffffffffff1673ffffffffffffffffffffffffffffffffffffffff168152602001908152602001600020600061065c610c65565b73ffffffffffffffffffffffffffffffffffffffff1673ffffffffffffffffffffffffffffffffffffffff168152602001908152602001600020549050828110156106dc576040517f08c379a00000000000000000000000000000000000000000000000000000000081526004016106d390611993565b60405180910390fd5b6106f0856106e8610c65565b858403610c6d565b60019150509392505050565b600d5481565b60006012905090565b600660009054906101000a900473ffffffffffffffffffffffffffffffffffffffff1681565b60006107d361073e610c65565b84846001600061074c610c65565b73ffffffffffffffffffffffffffffffffffffffff1673ffffffffffffffffffffffffffffffffffffffff16815260200190815260200160002060008873ffffffffffffffffffffffffffffffffffffffff1673ffffffffffffffffffffffffffffffffffffffff168152602001908152602001600020546107ce9190611ac1565b610c6d565b6001905092915050565b600a5481565b600760009054906101000a900473ffffffffffffffffffffffffffffffffffffffff1681565b60008060008373ffffffffffffffffffffffffffffffffffffffff1673ffffffffffffffffffffffffffffffffffffffff168152602001908152602001600020549050919050565b7f000000000000000000000000000000000000000000000000000000000000000073ffffffffffffffffffffffffffffffffffffffff163373ffffffffffffffffffffffffffffffffffffffff16146108df576040517f08c379a00000000000000000000000000000000000000000000000000000000081526004016108d6906119b3565b60405180910390fd5b6108e982826110e3565b5050565b6060600480546108fc90611da5565b80601f016020809104026020016040519081016040528092919081815260200182805461092890611da5565b80156109755780601f1061094a57610100808354040283529160200191610975565b820191906000526020600020905b81548152906001019060200180831161095857829003601f168201915b5050505050905090565b600b60009054906101000a900473ffffffffffffffffffffffffffffffffffffffff1681565b600080600160006109b4610c65565b73ffffffffffffffffffffffffffffffffffffffff1673ffffffffffffffffffffffffffffffffffffffff16815260200190815260200160002060008573ffffffffffffffffffffffffffffffffffffffff1673ffffffffffffffffffffffffffffffffffffffff16815260200190815260200160002054905082811015610a71576040517f08c379a0000000000000000000000000000000000000000000000000000000008152600401610a6890611a33565b60405180910390fd5b610a85610a7c610c65565b85858403610c6d565b600191505092915050565b6000610aa4610a9d610c65565b8484610e62565b6001905092915050565b60006009547f000000000000000000000000000000000000000000000000000000000000000073ffffffffffffffffffffffffffffffffffffffff166370a08231306040518263ffffffff1660e01b8152600401610b0c91906117b4565b60206040518083038186803b158015610b2457600080fd5b505afa158015610b38573d6000803e3d6000fd5b505050506040513d601f19601f82011682018060405250810190610b5c91906114cc565b1015610b9d576040517f08c379a0000000000000000000000000000000000000000000000000000000008152600401610b9490611973565b60405180910390fd5b6000600e60006101000a81548160ff021916908315150217905550610bc66008546009546110ee565b905090565b6000600160008473ffffffffffffffffffffffffffffffffffffffff1673ffffffffffffffffffffffffffffffffffffffff16815260200190815260200160002060008373ffffffffffffffffffffffffffffffffffffffff1673ffffffffffffffffffffffffffffffffffffffff16815260200190815260200160002054905092915050565b600e60009054906101000a900460ff1681565b600033905090565b600073ffffffffffffffffffffffffffffffffffffffff168373ffffffffffffffffffffffffffffffffffffffff161415610cdd576040517f08c379a0000000000000000000000000000000000000000000000000000000008152600401610cd490611a13565b60405180910390fd5b600073ffffffffffffffffffffffffffffffffffffffff168273ffffffffffffffffffffffffffffffffffffffff161415610d4d576040517f08c379a0000000000000000000000000000000000000000000000000000000008152600401610d44906118f3565b60405180910390fd5b80600160008573ffffffffffffffffffffffffffffffffffffffff1673ffffffffffffffffffffffffffffffffffffffff16815260200190815260200160002060008473ffffffffffffffffffffffffffffffffffffffff1673ffffffffffffffffffffffffffffffffffffffff168152602001908152602001600020819055508173ffffffffffffffffffffffffffffffffffffffff168373ffffffffffffffffffffffffffffffffffffffff167f8c5be1e5ebec7d5bd14f71427d1e84f3dd0314c0f7b2291e5b200ac8c7c3b92583604051610e2b9190611a53565b60405180910390a3505050565b6001600e60006101000a81548160ff021916908315150217905550610e5e308383610e62565b5050565b600073ffffffffffffffffffffffffffffffffffffffff168373ffffffffffffffffffffffffffffffffffffffff161415610ed2576040517f08c379a0000000000000000000000000000000000000000000000000000000008152600401610ec9906119f3565b60405180910390fd5b600073ffffffffffffffffffffffffffffffffffffffff168273ffffffffffffffffffffffffffffffffffffffff161415610f42576040517f08c379a0000000000000000000000000000000000000000000000000000000008152600401610f39906118d3565b60405180910390fd5b610f4d838383611250565b60008060008573ffffffffffffffffffffffffffffffffffffffff1673ffffffffffffffffffffffffffffffffffffffff16815260200190815260200160002054905081811015610fd3576040517f08c379a0000000000000000000000000000000000000000000000000000000008152600401610fca90611953565b60405180910390fd5b8181036000808673ffffffffffffffffffffffffffffffffffffffff1673ffffffffffffffffffffffffffffffffffffffff16815260200190815260200160002081905550816000808573ffffffffffffffffffffffffffffffffffffffff1673ffffffffffffffffffffffffffffffffffffffff16815260200190815260200160002060008282546110669190611ac1565b925050819055508273ffffffffffffffffffffffffffffffffffffffff168473ffffffffffffffffffffffffffffffffffffffff167fddf252ad1be2c89b69c2b068fc378daa952ba7f163c4a11628f55a4df523b3ef846040516110ca9190611a53565b60405180910390a36110dd848484611255565b50505050565b80600a819055505050565b60007f000000000000000000000000000000000000000000000000000000000000000073ffffffffffffffffffffffffffffffffffffffff16634000aea07f000000000000000000000000000000000000000000000000000000000000000084866000604051602001611162929190611843565b6040516020818303038152906040526040518463ffffffff1660e01b815260040161118f939291906117cf565b602060405180830381600087803b1580156111a957600080fd5b505af11580156111bd573d6000803e3d6000fd5b505050506040513d601f19601f820116820180604052508101906111e19190611432565b50600061120484600030600560008981526020019081526020016000205461125a565b9050600160056000868152602001908152602001600020546112269190611ac1565b60056000868152602001908152602001600020819055506112478482611296565b91505092915050565b505050565b505050565b600084848484604051602001611273949392919061186c565b6040516020818303038152906040528051906020012060001c9050949350505050565b600082826040516020016112ab929190611788565b60405160208183030381529060405280519060200120905092915050565b6000813590506112d8816121dd565b92915050565b6000815190506112ed816121f4565b92915050565b6000813590506113028161220b565b92915050565b60008135905061131781612222565b92915050565b60008151905061132c81612222565b92915050565b60006020828403121561134857611347611e78565b5b6000611356848285016112c9565b91505092915050565b6000806040838503121561137657611375611e78565b5b6000611384858286016112c9565b9250506020611395858286016112c9565b9150509250929050565b6000806000606084860312156113b8576113b7611e78565b5b60006113c6868287016112c9565b93505060206113d7868287016112c9565b92505060406113e886828701611308565b9150509250925092565b6000806040838503121561140957611408611e78565b5b6000611417858286016112c9565b925050602061142885828601611308565b9150509250929050565b60006020828403121561144857611447611e78565b5b6000611456848285016112de565b91505092915050565b6000806040838503121561147657611475611e78565b5b6000611484858286016112f3565b925050602061149585828601611308565b9150509250929050565b6000602082840312156114b5576114b4611e78565b5b60006114c384828501611308565b91505092915050565b6000602082840312156114e2576114e1611e78565b5b60006114f08482850161131d565b91505092915050565b61150281611d13565b82525050565b61151181611d25565b82525050565b61152081611d31565b82525050565b61153761153282611d31565b611dd7565b82525050565b600061154882611a89565b6115528185611a9f565b9350611562818560208601611d72565b61156b81611e7d565b840191505092915050565b600061158182611a94565b61158b8185611ab0565b935061159b818560208601611d72565b6115a481611e7d565b840191505092915050565b60006115bc602383611ab0565b91506115c782611e9b565b604082019050919050565b60006115df602283611ab0565b91506115ea82611eea565b604082019050919050565b6000611602601a83611ab0565b915061160d82611f39565b602082019050919050565b6000611625601183611ab0565b915061163082611f62565b602082019050919050565b6000611648602683611ab0565b915061165382611f8b565b604082019050919050565b600061166b602b83611ab0565b915061167682611fda565b604082019050919050565b600061168e602883611ab0565b915061169982612029565b604082019050919050565b60006116b1601f83611ab0565b91506116bc82612078565b602082019050919050565b60006116d4603a83611ab0565b91506116df826120a1565b604082019050919050565b60006116f7602583611ab0565b9150611702826120f0565b604082019050919050565b600061171a602483611ab0565b91506117258261213f565b604082019050919050565b600061173d602583611ab0565b91506117488261218e565b604082019050919050565b61175c81611d5b565b82525050565b61177361176e82611d5b565b611de1565b82525050565b61178281611d65565b82525050565b60006117948285611526565b6020820191506117a48284611762565b6020820191508190509392505050565b60006020820190506117c960008301846114f9565b92915050565b60006060820190506117e460008301866114f9565b6117f16020830185611753565b8181036040830152611803818461153d565b9050949350505050565b60006020820190506118226000830184611508565b92915050565b600060208201905061183d6000830184611517565b92915050565b60006040820190506118586000830185611517565b6118656020830184611753565b9392505050565b60006080820190506118816000830187611517565b61188e6020830186611753565b61189b60408301856114f9565b6118a86060830184611753565b95945050505050565b600060208201905081810360008301526118cb8184611576565b905092915050565b600060208201905081810360008301526118ec816115af565b9050919050565b6000602082019050818103600083015261190c816115d2565b9050919050565b6000602082019050818103600083015261192c816115f5565b9050919050565b6000602082019050818103600083015261194c81611618565b9050919050565b6000602082019050818103600083015261196c8161163b565b9050919050565b6000602082019050818103600083015261198c8161165e565b9050919050565b600060208201905081810360008301526119ac81611681565b9050919050565b600060208201905081810360008301526119cc816116a4565b9050919050565b600060208201905081810360008301526119ec816116c7565b9050919050565b60006020820190508181036000830152611a0c816116ea565b9050919050565b60006020820190508181036000830152611a2c8161170d565b9050919050565b60006020820190508181036000830152611a4c81611730565b9050919050565b6000602082019050611a686000830184611753565b92915050565b6000602082019050611a836000830184611779565b92915050565b600081519050919050565b600081519050919050565b600082825260208201905092915050565b600082825260208201905092915050565b6000611acc82611d5b565b9150611ad783611d5b565b9250827fffffffffffffffffffffffffffffffffffffffffffffffffffffffffffffffff03821115611b0c57611b0b611deb565b5b828201905092915050565b6000611b2282611d5b565b9150611b2d83611d5b565b925082611b3d57611b3c611e1a565b5b828204905092915050565b6000808291508390505b6001851115611b9257808604811115611b6e57611b6d611deb565b5b6001851615611b7d5780820291505b8081029050611b8b85611e8e565b9450611b52565b94509492505050565b6000611ba682611d5b565b9150611bb183611d65565b9250611bde7fffffffffffffffffffffffffffffffffffffffffffffffffffffffffffffffff8484611be6565b905092915050565b600082611bf65760019050611cb2565b81611c045760009050611cb2565b8160018114611c1a5760028114611c2457611c53565b6001915050611cb2565b60ff841115611c3657611c35611deb565b5b8360020a915084821115611c4d57611c4c611deb565b5b50611cb2565b5060208310610133831016604e8410600b8410161715611c885782820a905083811115611c8357611c82611deb565b5b611cb2565b611c958484846001611b48565b92509050818404811115611cac57611cab611deb565b5b81810290505b9392505050565b6000611cc482611d5b565b9150611ccf83611d5b565b9250817fffffffffffffffffffffffffffffffffffffffffffffffffffffffffffffffff0483118215151615611d0857611d07611deb565b5b828202905092915050565b6000611d1e82611d3b565b9050919050565b60008115159050919050565b6000819050919050565b600073ffffffffffffffffffffffffffffffffffffffff82169050919050565b6000819050919050565b600060ff82169050919050565b60005b83811015611d90578082015181840152602081019050611d75565b83811115611d9f576000848401525b50505050565b60006002820490506001821680611dbd57607f821691505b60208210811415611dd157611dd0611e49565b5b50919050565b6000819050919050565b6000819050919050565b7f4e487b7100000000000000000000000000000000000000000000000000000000600052601160045260246000fd5b7f4e487b7100000000000000000000000000000000000000000000000000000000600052601260045260246000fd5b7f4e487b7100000000000000000000000000000000000000000000000000000000600052602260045260246000fd5b600080fd5b6000601f19601f8301169050919050565b60008160011c9050919050565b7f45524332303a207472616e7366657220746f20746865207a65726f206164647260008201527f6573730000000000000000000000000000000000000000000000000000000000602082015250565b7f45524332303a20617070726f766520746f20746865207a65726f20616464726560008201527f7373000000000000000000000000000000000000000000000000000000000000602082015250565b7f43616c6c20612072616e646f6d206e756d626572206669727374000000000000600082015250565b7f596f75206469646e27742077696e2e2e2e000000000000000000000000000000600082015250565b7f45524332303a207472616e7366657220616d6f756e742065786365656473206260008201527f616c616e63650000000000000000000000000000000000000000000000000000602082015250565b7f4e6f7420656e6f756768204c494e4b202d2066696c6c20636f6e74726163742060008201527f7769746820666175636574000000000000000000000000000000000000000000602082015250565b7f45524332303a207472616e7366657220616d6f756e742065786365656473206160008201527f6c6c6f77616e6365000000000000000000000000000000000000000000000000602082015250565b7f4f6e6c7920565246436f6f7264696e61746f722063616e2066756c66696c6c00600082015250565b7f47657420612072616e646f6d206e756d62657220666972737420616e6420776160008201527f697420666f72207468652056524620746f20726573706f6e6421000000000000602082015250565b7f45524332303a207472616e736665722066726f6d20746865207a65726f20616460008201527f6472657373000000000000000000000000000000000000000000000000000000602082015250565b7f45524332303a20617070726f76652066726f6d20746865207a65726f2061646460008201527f7265737300000000000000000000000000000000000000000000000000000000602082015250565b7f45524332303a2064656372656173656420616c6c6f77616e63652062656c6f7760008201527f207a65726f000000000000000000000000000000000000000000000000000000602082015250565b6121e681611d13565b81146121f157600080fd5b50565b6121fd81611d25565b811461220857600080fd5b50565b61221481611d31565b811461221f57600080fd5b50565b61222b81611d5b565b811461223657600080fd5b5056fea264697066735822122017bf8f1624a5a561e57d3c04ae7ffd96a638505e3072396ebb4e899fc1ed755a64736f6c63430008070033",
  "linkReferences": {},
  "deployedLinkReferences": {}
}