{
  "_format": "hh-sol-artifact-1",
  "contractName": "Chime",
  "sourceName": "contracts/Chime.sol",
  "abi": [
    {
      "inputs": [],
      "stateMutability": "nonpayable",
      "type": "constructor"
    },
    {
      "inputs": [
        {
          "internalType": "address",
          "name": "_addr",
          "type": "address"
        },
        {
          "internalType": "string",
          "name": "_name",
          "type": "string"
        },
        {
          "internalType": "enum Chime.relationship_type",
          "name": "_relationship",
          "type": "uint8"
        }
      ],
      "name": "addToList",
      "outputs": [],
      "stateMutability": "nonpayable",
      "type": "function"
    },
    {
      "inputs": [
        {
          "internalType": "address",
          "name": "_addr",
          "type": "address"
        }
      ],
      "name": "getName",
      "outputs": [
        {
          "internalType": "string",
          "name": "_name",
          "type": "string"
        }
      ],
      "stateMutability": "view",
      "type": "function"
    },
    {
      "inputs": [
        {
          "internalType": "address",
          "name": "_addr",
          "type": "address"
        }
      ],
      "name": "getRelationship",
      "outputs": [
        {
          "internalType": "enum Chime.relationship_type",
          "name": "_relationship",
          "type": "uint8"
        }
      ],
      "stateMutability": "view",
      "type": "function"
    },
    {
      "inputs": [
        {
          "internalType": "address",
          "name": "",
          "type": "address"
        }
      ],
      "name": "list",
      "outputs": [
        {
          "internalType": "string",
          "name": "name",
          "type": "string"
        },
        {
          "internalType": "enum Chime.relationship_type",
          "name": "relationship",
          "type": "uint8"
        }
      ],
      "stateMutability": "view",
      "type": "function"
    },
    {
      "inputs": [
        {
          "internalType": "address",
          "name": "_addr",
          "type": "address"
        }
      ],
      "name": "removeFromList",
      "outputs": [],
      "stateMutability": "nonpayable",
      "type": "function"
    },
    {
      "inputs": [
        {
          "internalType": "address",
          "name": "_to",
          "type": "address"
        },
        {
          "internalType": "string",
          "name": "_message",
          "type": "string"
        }
      ],
      "name": "sendMessage",
      "outputs": [],
      "stateMutability": "nonpayable",
      "type": "function"
    }
  ],
  "bytecode": "0x608060405234801561001057600080fd5b50610a15806100206000396000f3fe608060405234801561001057600080fd5b50600436106100625760003560e01c8063257f9abf146100675780635fd4b08a14610083578063643216f5146100b3578063bb032a66146100cf578063de6f24bb14610100578063e7b2d1671461011c575b600080fd5b610081600480360381019061007c91906105d7565b61014c565b005b61009d600480360381019061009891906105d7565b6101b5565b6040516100aa9190610732565b60405180910390f35b6100cd60048036038101906100c89190610660565b610289565b005b6100e960048036038101906100e491906105d7565b610344565b6040516100f7929190610754565b60405180910390f35b61011a60048036038101906101159190610604565b6103fd565b005b610136600480360381019061013191906105d7565b610401565b6040516101439190610717565b60405180910390f35b600460008273ffffffffffffffffffffffffffffffffffffffff1673ffffffffffffffffffffffffffffffffffffffff1681526020019081526020016000206000808201600061019c919061045a565b6001820160006101000a81549060ff0219169055505050565b6060600460008373ffffffffffffffffffffffffffffffffffffffff1673ffffffffffffffffffffffffffffffffffffffff16815260200190815260200160002060000180546102049061088f565b80601f01602080910402602001604051908101604052809291908181526020018280546102309061088f565b801561027d5780601f106102525761010080835404028352916020019161027d565b820191906000526020600020905b81548152906001019060200180831161026057829003601f168201915b50505050509050919050565b60405180604001604052808381526020018260028111156102ad576102ac6108f2565b5b815250600460008573ffffffffffffffffffffffffffffffffffffffff1673ffffffffffffffffffffffffffffffffffffffff168152602001908152602001600020600082015181600001908051906020019061030b92919061049a565b5060208201518160010160006101000a81548160ff02191690836002811115610337576103366108f2565b5b0217905550905050505050565b60046020528060005260406000206000915090508060000180546103679061088f565b80601f01602080910402602001604051908101604052809291908181526020018280546103939061088f565b80156103e05780601f106103b5576101008083540402835291602001916103e0565b820191906000526020600020905b8154815290600101906020018083116103c357829003601f168201915b5050505050908060010160009054906101000a900460ff16905082565b5050565b6000600460008373ffffffffffffffffffffffffffffffffffffffff1673ffffffffffffffffffffffffffffffffffffffff16815260200190815260200160002060010160009054906101000a900460ff169050919050565b5080546104669061088f565b6000825580601f106104785750610497565b601f0160209004906000526020600020908101906104969190610520565b5b50565b8280546104a69061088f565b90600052602060002090601f0160209004810192826104c8576000855561050f565b82601f106104e157805160ff191683800117855561050f565b8280016001018555821561050f579182015b8281111561050e5782518255916020019190600101906104f3565b5b50905061051c9190610520565b5090565b5b80821115610539576000816000905550600101610521565b5090565b600061055061054b846107a9565b610784565b90508281526020810184848401111561056c5761056b610984565b5b61057784828561084d565b509392505050565b60008135905061058e816109b8565b92915050565b6000813590506105a3816109cf565b92915050565b600082601f8301126105be576105bd61097f565b5b81356105ce84826020860161053d565b91505092915050565b6000602082840312156105ed576105ec61098e565b5b60006105fb8482850161057f565b91505092915050565b6000806040838503121561061b5761061a61098e565b5b60006106298582860161057f565b925050602083013567ffffffffffffffff81111561064a57610649610989565b5b610656858286016105a9565b9150509250929050565b6000806000606084860312156106795761067861098e565b5b60006106878682870161057f565b935050602084013567ffffffffffffffff8111156106a8576106a7610989565b5b6106b4868287016105a9565b92505060406106c586828701610594565b9150509250925092565b6106d88161083b565b82525050565b60006106e9826107da565b6106f381856107e5565b935061070381856020860161085c565b61070c81610993565b840191505092915050565b600060208201905061072c60008301846106cf565b92915050565b6000602082019050818103600083015261074c81846106de565b905092915050565b6000604082019050818103600083015261076e81856106de565b905061077d60208301846106cf565b9392505050565b600061078e61079f565b905061079a82826108c1565b919050565b6000604051905090565b600067ffffffffffffffff8211156107c4576107c3610950565b5b6107cd82610993565b9050602081019050919050565b600081519050919050565b600082825260208201905092915050565b60006108018261081b565b9050919050565b6000819050610816826109a4565b919050565b600073ffffffffffffffffffffffffffffffffffffffff82169050919050565b600061084682610808565b9050919050565b82818337600083830152505050565b60005b8381101561087a57808201518184015260208101905061085f565b83811115610889576000848401525b50505050565b600060028204905060018216806108a757607f821691505b602082108114156108bb576108ba610921565b5b50919050565b6108ca82610993565b810181811067ffffffffffffffff821117156108e9576108e8610950565b5b80604052505050565b7f4e487b7100000000000000000000000000000000000000000000000000000000600052602160045260246000fd5b7f4e487b7100000000000000000000000000000000000000000000000000000000600052602260045260246000fd5b7f4e487b7100000000000000000000000000000000000000000000000000000000600052604160045260246000fd5b600080fd5b600080fd5b600080fd5b600080fd5b6000601f19601f8301169050919050565b600381106109b5576109b46108f2565b5b50565b6109c1816107f6565b81146109cc57600080fd5b50565b600381106109dc57600080fd5b5056fea2646970667358221220242754571124cad25406839bcd3b9575cdfa7e41cda101e8d79f9d763bfc423464736f6c63430008070033",
  "linkReferences": {},
  "deployedLinkReferences": {}
}